:060000000A128A11F32F21
:10000A000A128A1533270A128A11700883120313F7
:10001A0093000800283083120313940083160313F5
:10002A009101831203132008A4002108A5002208C5
:10003A00A6002308A70002300310A40DA50DA60DE3
:10004A00A70DFF3E031D21282708F3002608F2000A
:10005A002508F1002408F0000030F7007A30F60095
:10006A001230F5000030F4000A128A11AC220A128A
:10007A008A117008FF3E83160313930094018715B3
:10008A00071608007008710403194C284D287C28AB
:10009A00F501F50A5B2801300310F00DF10DFF3E62
:1000AA00031D51280130F4007408F507F11F5E287A
:1000BA005F28502871087302031D652870087202B0
:1000CA00031C682869286F287008F2027108031C4B
:1000DA00F303F30201300310F10CF00CFF3E031D91
:1000EA0070280130F502031D7B287C285F287308DD
:1000FA00F1007208F0000800F501F60170087104B9
:10010A00031988288928C028F701F70A9728013097
:10011A000310F00DF10DFF3E031D8D280130F40090
:10012A007408F707F11F9A289B288C2801300310BE
:10013A00F50DF60DFF3E031D9C2871087302031D81
:10014A00A82870087202031CAB28AC28B3287008D0
:10015A00F2027108031CF303F30275140130031051
:10016A00F10CF00CFF3E031DB4280130F702031D09
:10017A00BF28C0289B287608F1007508F0000800FF
:10018A000030FC000030FB000030FA000030F900BB
:10019A00701CD028D128E8287408F90775080311BB
:1001AA000318013E0319DA28FA077608031103181F
:1001BA00013E0319E128FB07770803110318013EE2
:1001CA000319E828FC070130F8000310F40DF50DB7
:1001DA00F60DF70DF80BEA2801300310F30CF20CB8
:1001EA00F10CF00CFF3E031DF2287308720471042F
:1001FA007004031D01290229CD287C08F3007B081D
:10020A00F2007A08F1007908F0000800831203135B
:10021A00B9002F08B300B401B501B6013608A3002E
:10022A003508A2003408A1003308A00030083102C2
:10023A00F0003208031C3203F100F201F3012E0828
:10024A003902F400F501031CF503F601F51BF60368
:10025A007608F7000A128A11C5200A128A11730851
:10026A0083120313A7007208A6007108A50070087C
:10027A00A4000A128A11EF230A128A1183120313A5
:10028A0030082007B7000030031801302107B800F2
:10029A003808AF003708AE000800F0007008031DE8
:1002AA00572958295A293030A1297003031D5E297C
:1002BA005F2961293130A12902307006031D6629A0
:1002CA00672969293230A12903307006031D6E2976
:1002DA006F2971293330A12904307006031D76294C
:1002EA00772979293430A12905307006031D7E2922
:1002FA007F2981293530A12906307006031D8629F8
:10030A00872989293630A12907307006031D8E29CD
:10031A008F2991293730A12908307006031D9629A3
:10032A00972999293830A12909307006031D9E2979
:10033A009F29A1293930A129080000300A128A15FB
:10034A005C270A128A111A30F400F830F300F30B12
:10035A00AC29F40BAC29000030300A128A155C274C
:10036A000A128A110730F4007D30F300F30BBB291F
:10037A00F40BBB2930300A128A155C270A128A113B
:10038A000D30F400FB30F300F30BC929F40BC92933
:10039A00CE2930300A128A155C270A128A11C73010
:1003AA00F300D729F30BD629DA29DB2938300A12C8
:1003BA008A155C270A128A110C300A128A155C27E0
:1003CA000A128A1101300A128A155C270A128A1146
:1003DA0006300A128A155C270A128A110800F601E9
:1003EA00F31FF829F929002AF209F309F20A031975
:1003FA00F30AF601F60AF11F032A042A092AF00968
:10040A00F109F00A0319F10A7008710403190E2A96
:10041A000F2A3E2AF501F50A1D2A01300310F00DB4
:10042A00F10DFF3E031D132A0130F4007408F5078D
:10043A00F11F202A212A122A71087302031D272A72
:10044A0070087202031C2A2A2B2A312A7008F20227
:10045A007108031CF303F30201300310F10CF00CD2
:10046A00FF3E031D322A0130F502031D3D2A3E2AB2
:10047A00212A76080319422A432A482AF209F3094B
:10048A00F20A0319F30A7308F1007208F00008006F
:10049A006430F0000030F1007D08F3007C08F200BF
:1004AA000A128A1181200A128A1170088312031310
:1004BA00A2006430F0000030F1007D08F3007C08EF
:1004CA00F2000A128A1147200A128A11700883124E
:1004DA000313A4000A30F0000030F1002408A00041
:1004EA00A1012008F2002108F3000A128A11F4215E
:1004FA000A128A11700883120313A30002307A06C3
:10050A007B04031D892A8A2A8C2A2208AB2A7A03A9
:10051A007B04031D912A922AA42A0A30F000003093
:10052A00F1002408A000A1012008F2002108F3002C
:10053A000A128A1112230A128A117008AB2A7A083F
:10054A007B04031DA92AAA2AAB2A23080800003023
:10055A00FC000030FB000030FA000030F90073089C
:10056A007204710470040319BB2ABC2A092BFD0109
:10057A00FD0ACC2A0130F8000310F00DF10DF20D3E
:10058A00F30DF80BC12A0130F8007808FD07F31FB4
:10059A00CF2AD02ABF2A0130F8000310F90DFA0D2C
:1005AA00FB0DFC0DF80BD22A73087702031DE72A0C
:1005BA0072087602031DE72A71087502031DE72AED
:1005CA0070087402031CEA2AEB2AFA2A7008F40259
:1005DA007108031C710FF5027208031C720FF602F0
:1005EA007308031C730FF702791401300310F30C1C
:1005FA00F20CF10CF00CFF3E031DFB2A0130FD0248
:10060A00031D082B092BD02A7C08F3007B08F20073
:10061A007A08F1007908F0000800F601F11F162B9C
:10062A00172B1E2BF009F109F00A0319F10AF6013A
:10063A00F60AF31F212B222B2B2BF209F309F20ABC
:10064A000319F30A0130F4007408F606F701F801F9
:10065A00700871040319322B332B6A2BF501F50A42
:10066A00412B01300310F00DF10DFF3E031D372B16
:10067A000130F4007408F507F11F442B452B362B83
:10068A0001300310F70DF80DFF3E031D462B7108CC
:10069A007302031D522B70087202031C552B562B32
:1006AA005D2B7008F2027108031CF303F30277143E
:1006BA0001300310F10CF00CFF3E031D5E2B0130DC
:1006CA00F502031D692B6A2B452B760803196E2B3D
:1006DA006F2B742BF709F809F70A0319F80A780837
:1006EA00F1007708F00008000310720D730DF9008D
:1006FA007908031D812B822B8B2B0030F3000030ED
:10070A00F2000030F1000030F000EE2B7008F40027
:10071A007108F5007208F6007308F7001F3003101D
:10072A00F70CF60CF50CF40CFF3E031D942B740821
:10073A00F800F217FF30F005FF30F105FF30F2053F
:10074A000030F3059630F902F91FAC2BAD2BC72BFD
:10075A007908803A973E0318B32BB42BB52B822B1A
:10076A0001300310F30CF20CF10CF00CFF3E031DE8
:10077A00B62B0130F4007408F907031DC52BC62BEC
:10078A00B52BDE2B20307902031CCC2BCD2BD92B99
:10079A00822B0130F4000310F00DF10DF20DF30D70
:1007AA00F40BD02B0130F9027908031DDD2BDE2B67
:1007BA00CE2B78080319E22BE32BEE2BF009F10973
:1007CA00F209F309F00A0319F10A0319F20A0319E3
:1007DA00F30A080083120313A901A31FF52BF62BB2
:1007EA00032CA009A109A209A309A00A0319A10AB5
:1007FA000319A20A0319A30AA901A90AA71F062C09
:10080A00072C162CA409A509A609A709A40A0319E5
:10081A00A50A0319A60A0319A70A0130FD007D08D3
:10082A00A9060030AD000030AC000030AB0000304B
:10083A00AA0023082204210420040319252C262CAB
:10084A00732CA801A80A362C0130FD000310A00D54
:10085A00A10DA20DA30DFD0B2B2C0130FD007D086F
:10086A00A807A31F392C3A2C292C0130FD000310AC
:10087A00AA0DAB0DAC0DAD0DFD0B3C2C23082702C8
:10088A00031D512C22082602031D512C2108250282
:10089A00031D512C20082402031C542C552C642CB3
:1008AA002008A4022108031C210FA5022208031C08
:1008BA00220FA6022308031C230FA7022A140130C1
:1008CA000310A30CA20CA10CA00CFF3E031D652C67
:1008DA000130A802031D722C732C3A2C2908031923
:1008EA00772C782C832CAA09AB09AC09AD09AA0A82
:1008FA000319AB0A0319AC0A0319AD0A2D08A300A0
:10090A002C08A2002B08A1002A08A00008008312C4
:10091A000313C20042080319932C942CA82CBD1F60
:10092A00972C982CA82C3A09C4003B09C5003C090D
:10093A00C6003D09C700C40A0319C50A0319C60A35
:10094A000319C70AB02C3D08C7003C08C6003B087B
:10095A00C5003A08C4003D083C043B043A04031DA0
:10096A00B72CB82CC12C0030BD000030BC000030C0
:10097A00BB000030BA00452D9630C300D12C01309F
:10098A00BE003E08C30701300310C70CC60CC50CD5
:10099A00C40CFF3E031DC92CFE304705031DD62C8F
:1009AA00D72CC42CF32C0130BE003E08C3070130FB
:1009BA00C407003003180130C5070030031801309E
:1009CA00C607003003180130C70701300310C70CEF
:1009DA00C60CC50CC40CFF3E031DEB2CFF304705AB
:1009EA00031DF82CF92CD82C052D0130C302013037
:1009FA00BE000310C40DC50DC60DC70DBE0BFE2CDF
:100A0A00C61B082D092D0F2D0230430203180E2D87
:100A1A000F2DFA2C4318122D132D1B2DFF30C40550
:100A2A00FF30C5057F30C605FF30C7050310C30C6C
:100A3A004308BE00BF01C001C10118300310BE0D3A
:100A4A00BF0DC00DC10DFF3E031D232D3E08C4047A
:100A5A003F08C5044008C6044108C70442080319F0
:100A6A00372D382D3D2DBD1F3B2D3C2D3D2DC71754
:100A7A004708BD004608BC004508BB004408BA0048
:100A8A0008000A128A1590270A128A110A128A1174
:100A9A00A2210A128A110A128A1540270A128A11F9
:100AAA000230F30001300A128A1570270A128A11DD
:100ABA0001300A128A15B0270A128A110A128A15F7
:100ACA0021270A128A114130F0000030F1000A127F
:100ADA008A1105200A128A110030F000F1000A1268
:100AEA008A15D2270A128A11700883120313E100A9
:100AFA000A128A152A270A128A1183120313610815
:100B0A008600F430B1000130B200B001FF30AF000E
:100B1A00AE0161080A128A110B210A128A11831284
:100B2A0003132E08C8002F08C900CA01CB014B08BD
:100B3A00BD004A08BC004908BB004808BA0000309A
:100B4A000A128A118C240A128A11831203133D088D
:100B5A00CF003C08CE003B08CD003A08CC0002305A
:100B6A00FA000030FB004F08F3004E08F2004D086F
:100B7A00F1004C08F0000A128A1179230A128A112C
:100B8A007108FD007008FC000A128A114D220A122F
:100B9A008A110A128A1152210A128A118312031324
:100BAA00D800F301F30A02300A128A1570270A12D2
:100BBA008A118312031358080A128A154D270A123A
:100BCA008A110230F30002300A128A1570270A12BB
:100BDA008A1106300A128A15B0270A128A110130C0
:100BEA00FA000030FB00831203134F08F3004E088B
:100BFA00F2004D08F1004C08F0000A128A1179231C
:100C0A000A128A117108FD007008FC000A128A1182
:100C1A004D220A128A110A128A1152210A128A11C3
:100C2A0083120313D7000330F30002300A128A1525
:100C3A0070270A128A118312031357080A128A1597
:100C4A004D270A128A110030FA00FB00831203139F
:100C5A004F08F3004E08F2004D08F1004C08F0006E
:100C6A000A128A1179230A128A117108FD00700882
:100C7A00FC000A128A114D220A128A110A128A11DA
:100C8A0052210A128A1183120313D6000430F30088
:100C9A0002300A128A1570270A128A118312031364
:100CAA0056080A128A154D270A128A11023083122F
:100CBA000313CA000430C900B930C800C80B632E38
:100CCA00C90B632ECA0B632E6A2E0A128A152127B4
:100CDA000A128A11D030F0000030F1000A128A118B
:100CEA0005200A128A110030F000F1000A128A1156
:100CFA0005200A128A110A128A1518270A128A115D
:100D0A00D130F0000030F1000A128A1105200A12CF
:100D1A008A110030F000F1000A128A15D2270A124D
:100D2A008A11700883120313DE000E30F3000130BB
:100D3A000A128A1570270A128A11831203135E088F
:100D4A000A128A154D270A128A110A128A152127B0
:100D5A000A128A11D030F0000030F1000A128A110A
:100D6A0005200A128A110130F0000030F1000A123F
:100D7A008A1105200A128A110A128A1518270A12DC
:100D8A008A11D130F0000030F1000A128A110520D0
:100D9A000A128A110030F000F1000A128A15D227CD
:100DAA000A128A11700883120313DD000B30F30054
:100DBA0001300A128A1570270A128A118312031344
:100DCA005E080A128A154D270A128A110A128A1512
:100DDA0021270A128A11D030F0000030F1000A12DD
:100DEA008A1105200A128A110230F0000030F1003F
:100DFA000A128A1105200A128A110A128A1518275C
:100E0A000A128A11D130F0000030F1000A128A1158
:100E1A0005200A128A110030F000F1000A128A1520
:100E2A00D2270A128A11700883120313DC000830D1
:100E3A00F30001300A128A1570270A128A118312E6
:100E4A0003135E080A128A154D270A128A110A121A
:100E5A008A1521270A128A11D030F0000030F100D9
:100E6A000A128A1105200A128A110430F000003091
:100E7A00F1000A128A1105200A128A110A128A1529
:100E8A0018270A128A11D130F0000030F1000A1234
:100E9A008A1105200A128A110030F000F1000A12A4
:100EAA008A15D2270A128A11700883120313DB00EB
:100EBA000830F30002300A128A1570270A128A11C2
:100ECA00831203135B080A128A154D270A128A1124
:100EDA000A128A1521270A128A11D030F00000302E
:100EEA00F1000A128A1105200A128A110530F0004F
:100EFA000030F1000A128A1105200A128A110A1218
:100F0A008A1518270A128A11D130F0000030F10030
:100F1A000A128A1105200A128A110030F000F10023
:100F2A000A128A15D2270A128A1170088312031329
:100F3A00DA000B30F30002300A128A1570270A12FF
:100F4A008A11831203135A080A128A154D270A12A4
:100F5A008A110A128A1521270A128A11D030F00042
:100F6A000030F1000A128A1105200A128A1106308D
:100F7A00F0000030F1000A128A1105200A128A11C3
:100F8A000A128A1518270A128A11D130F000003085
:100F9A00F1000A128A1105200A128A110030F000A3
:100FAA00F1000A128A15D2270A128A1170088312CE
:100FBA000313D9000E30F30002300A128A15702783
:100FCA000A128A118312031359080A128A154D2725
:100FDA000A128A11632D0A128A11002883134C30CF
:100FEA00840062300A128A1510270A128A118301B4
:100FFA000A128A11462D08308A000408840A8207D8
:10100A00003470346F3474343A3400342E3400347B
:101E200064008001840A0406031900340406112F9B
:101E30000A128A1533270A128A158316031391147E
:101E400008000A128A1533270A128A15831603130B
:101E5000111408000A128A1533270A128A158316EC
:101E6000031311150800831603131419382F392F83
:101E7000332F11081F39031D3E2F3F2F332F08002A
:101E800000300A128A155C270A128A1501300A12DC
:101E90008A155C270A128A150800F10083120313C1
:101EA00007147108880087140D30F000F00B562FCE
:101EB0008312031387100800F20083120313071024
:101EC0007208880087140630F1003030F000F00B03
:101ED000672FF10B672F0000831203138710080090
:101EE000F4007403031D752F762F802F73087F3E37
:101EF000F50075080A128A155C270A128A158F2FB9
:101F000002307406031D852F862F8F2F7308BF3E66
:101F1000F50075080A128A155C270A128A1508004E
:101F2000831603178801890183160313860188012C
:101F3000831203138601880183160313870183121A
:101F4000031387010030A3000130A2008630A100F6
:101F5000A030A0000A128A110F200A128A15080068
:101F6000F400F301C42F7308740784000A128A1561
:101F700000200A128A150A128A154D270A128A159C
:101F80000130F2007208F3077308740784000A1224
:101F90008A1500200A128A15003A031DD02FD12F6E
:101FA000B32F08000A128A1533270A128A158316DE
:101FB000031391150A128A1533270A128A15831200
:101FC00003131308F200F3017208F4007308F5001C
:101FD0000A128A1533270A128A1570037104031D29
:101FE000F22FF32FF72F831603139112FA2F831674
:101FF0000313911611167508F1007408F00008001B
:08400000FF3FFF3FFF3FFF3FC0
:04400E00D420FF3F7C
:00000001FF
