:060000000A128A110C280F
:10000800FE00030EF1000A08F2000A128A111528F0
:100018000A128A110F28F701F80183010A128A11BE
:100028008A28831203138C1D1A281B286928141286
:10003800141B1F2820282428941F23282428292813
:100048001308F80014139413141683160313941A40
:100058002E282F2848281419322833284828831294
:1000680003131308F8008C11141683160313141CB9
:100078003E283F2839288312031313088800533079
:10008800F000F00B45286628941A4B284C2866285F
:10009800141D4F2850286628831203131308F800EC
:1000A80083160313141083120313060893001416FF
:1000B8005330F000F00B5E288316031314186528DC
:1000C80066286028831203138C1172088A00710E47
:1000D8008300FE0E7E0E0900F300730883160313D7
:1000E8009300363083120313940080308316031371
:1000F800940001309100871507168B170B17831290
:1001080003138C11831603138C1508000A128A1125
:10011800A3200A128A118312031386090330F600FA
:100128008A30F5005530F400F40B9828F50B982820
:10013800F60B98289F288F280A128A110C288316F4
:100148000317880189018316031386018801831226
:1001580003138601880150300A128A1170200A128E
:040168008A110800F0
:08400000FF3FFF3FFF3FFF3FC0
:04400E00D420FF3F7C
:00000001FF
