:060000000A128A110C280F
:10000800FE00030EF1000A08F2000A128A111528F0
:100018000A128A110F28F701F80183010A128A11BE
:100028009628831203138C1D1A281B28692814127A
:10003800141B1F2820282428941F23282428292813
:100048001308F80014139413141683160313941A40
:100058002E282F2848281419322833284828831294
:1000680003131308F8008C11141683160313141CB9
:100078003E283F2839288312031313088800533079
:10008800F000F00B45286628941A4B284C2866285F
:10009800141D4F2850286628831203131308F800EC
:1000A800831603131410790883120313930014168C
:1000B8005330F000F00B5E288316031314186528DC
:1000C80066286028831203138C1172088A00710E47
:1000D8008300FE0E7E0E0900F400831203138501CF
:1000E800831603138501831603170808013888004F
:1000F800831203139F131F17831603139F121F12D4
:100108009F137408F300F30DF30D831203131F08F4
:100118007306C33973069F001F142130F300F30BD5
:10012800932808000A128A11EC200A128A1100305A
:100138000A128A11B5200A128A117508F9000330CB
:1001480083120313A7008A30A6005530A500A50B1B
:10015800AB28A60BAB28A70BAB289B280A128A1141
:100168000C2883120313A20022080A128A11702095
:100178000A128A11831203139F149F18C428C528D2
:10018800C1280C131E08A000A1012008A300210803
:10019800A4002408F6002308F5000800F3007308FB
:1001A80083160313930036308312031394008030B0
:1001B80083160313940001309100871507168B17D7
:1001C8000B17831203138C11831603138C15080065
:1001D8008316031788018901831603138601880192
:1001E800831203138601880141300A128A11D22032
:0601F8000A128A11080042
:08400000FF3FFF3FFF3FFF3FC0
:04400E00D420FF3F7C
:00000001FF
